{
  "_format": "hh-sol-artifact-1",
  "contractName": "AvengersNFT",
  "sourceName": "contracts/AvengersNFT.sol",
  "abi": [
    {
      "inputs": [],
      "stateMutability": "nonpayable",
      "type": "constructor"
    },
    {
      "anonymous": false,
      "inputs": [
        {
          "indexed": true,
          "internalType": "address",
          "name": "owner",
          "type": "address"
        },
        {
          "indexed": true,
          "internalType": "address",
          "name": "approved",
          "type": "address"
        },
        {
          "indexed": true,
          "internalType": "uint256",
          "name": "tokenId",
          "type": "uint256"
        }
      ],
      "name": "Approval",
      "type": "event"
    },
    {
      "anonymous": false,
      "inputs": [
        {
          "indexed": true,
          "internalType": "address",
          "name": "owner",
          "type": "address"
        },
        {
          "indexed": true,
          "internalType": "address",
          "name": "operator",
          "type": "address"
        },
        {
          "indexed": false,
          "internalType": "bool",
          "name": "approved",
          "type": "bool"
        }
      ],
      "name": "ApprovalForAll",
      "type": "event"
    },
    {
      "anonymous": false,
      "inputs": [
        {
          "indexed": true,
          "internalType": "address",
          "name": "previousOwner",
          "type": "address"
        },
        {
          "indexed": true,
          "internalType": "address",
          "name": "newOwner",
          "type": "address"
        }
      ],
      "name": "OwnershipTransferred",
      "type": "event"
    },
    {
      "anonymous": false,
      "inputs": [
        {
          "indexed": false,
          "internalType": "address",
          "name": "account",
          "type": "address"
        }
      ],
      "name": "Paused",
      "type": "event"
    },
    {
      "anonymous": false,
      "inputs": [
        {
          "indexed": true,
          "internalType": "address",
          "name": "from",
          "type": "address"
        },
        {
          "indexed": true,
          "internalType": "address",
          "name": "to",
          "type": "address"
        },
        {
          "indexed": true,
          "internalType": "uint256",
          "name": "tokenId",
          "type": "uint256"
        }
      ],
      "name": "Transfer",
      "type": "event"
    },
    {
      "anonymous": false,
      "inputs": [
        {
          "indexed": false,
          "internalType": "address",
          "name": "account",
          "type": "address"
        }
      ],
      "name": "Unpaused",
      "type": "event"
    },
    {
      "anonymous": false,
      "inputs": [
        {
          "indexed": true,
          "internalType": "address",
          "name": "_from",
          "type": "address"
        },
        {
          "indexed": false,
          "internalType": "uint256",
          "name": "_value",
          "type": "uint256"
        }
      ],
      "name": "getToken",
      "type": "event"
    },
    {
      "inputs": [
        {
          "internalType": "address",
          "name": "to",
          "type": "address"
        },
        {
          "internalType": "uint256",
          "name": "tokenId",
          "type": "uint256"
        }
      ],
      "name": "approve",
      "outputs": [],
      "stateMutability": "nonpayable",
      "type": "function"
    },
    {
      "inputs": [
        {
          "internalType": "address",
          "name": "owner",
          "type": "address"
        }
      ],
      "name": "balanceOf",
      "outputs": [
        {
          "internalType": "uint256",
          "name": "",
          "type": "uint256"
        }
      ],
      "stateMutability": "view",
      "type": "function"
    },
    {
      "inputs": [
        {
          "internalType": "uint256",
          "name": "tokenId",
          "type": "uint256"
        }
      ],
      "name": "getApproved",
      "outputs": [
        {
          "internalType": "address",
          "name": "",
          "type": "address"
        }
      ],
      "stateMutability": "view",
      "type": "function"
    },
    {
      "inputs": [
        {
          "internalType": "address",
          "name": "owner",
          "type": "address"
        },
        {
          "internalType": "address",
          "name": "operator",
          "type": "address"
        }
      ],
      "name": "isApprovedForAll",
      "outputs": [
        {
          "internalType": "bool",
          "name": "",
          "type": "bool"
        }
      ],
      "stateMutability": "view",
      "type": "function"
    },
    {
      "inputs": [],
      "name": "name",
      "outputs": [
        {
          "internalType": "string",
          "name": "",
          "type": "string"
        }
      ],
      "stateMutability": "view",
      "type": "function"
    },
    {
      "inputs": [],
      "name": "owner",
      "outputs": [
        {
          "internalType": "address",
          "name": "",
          "type": "address"
        }
      ],
      "stateMutability": "view",
      "type": "function"
    },
    {
      "inputs": [
        {
          "internalType": "uint256",
          "name": "tokenId",
          "type": "uint256"
        }
      ],
      "name": "ownerOf",
      "outputs": [
        {
          "internalType": "address",
          "name": "",
          "type": "address"
        }
      ],
      "stateMutability": "view",
      "type": "function"
    },
    {
      "inputs": [],
      "name": "pause",
      "outputs": [],
      "stateMutability": "nonpayable",
      "type": "function"
    },
    {
      "inputs": [],
      "name": "paused",
      "outputs": [
        {
          "internalType": "bool",
          "name": "",
          "type": "bool"
        }
      ],
      "stateMutability": "view",
      "type": "function"
    },
    {
      "inputs": [],
      "name": "renounceOwnership",
      "outputs": [],
      "stateMutability": "nonpayable",
      "type": "function"
    },
    {
      "inputs": [
        {
          "internalType": "uint256",
          "name": "random",
          "type": "uint256"
        }
      ],
      "name": "safeMint",
      "outputs": [],
      "stateMutability": "nonpayable",
      "type": "function"
    },
    {
      "inputs": [
        {
          "internalType": "address",
          "name": "from",
          "type": "address"
        },
        {
          "internalType": "address",
          "name": "to",
          "type": "address"
        },
        {
          "internalType": "uint256",
          "name": "tokenId",
          "type": "uint256"
        }
      ],
      "name": "safeTransferFrom",
      "outputs": [],
      "stateMutability": "nonpayable",
      "type": "function"
    },
    {
      "inputs": [
        {
          "internalType": "address",
          "name": "from",
          "type": "address"
        },
        {
          "internalType": "address",
          "name": "to",
          "type": "address"
        },
        {
          "internalType": "uint256",
          "name": "tokenId",
          "type": "uint256"
        },
        {
          "internalType": "bytes",
          "name": "data",
          "type": "bytes"
        }
      ],
      "name": "safeTransferFrom",
      "outputs": [],
      "stateMutability": "nonpayable",
      "type": "function"
    },
    {
      "inputs": [
        {
          "internalType": "address",
          "name": "operator",
          "type": "address"
        },
        {
          "internalType": "bool",
          "name": "approved",
          "type": "bool"
        }
      ],
      "name": "setApprovalForAll",
      "outputs": [],
      "stateMutability": "nonpayable",
      "type": "function"
    },
    {
      "inputs": [
        {
          "internalType": "bytes4",
          "name": "interfaceId",
          "type": "bytes4"
        }
      ],
      "name": "supportsInterface",
      "outputs": [
        {
          "internalType": "bool",
          "name": "",
          "type": "bool"
        }
      ],
      "stateMutability": "view",
      "type": "function"
    },
    {
      "inputs": [],
      "name": "symbol",
      "outputs": [
        {
          "internalType": "string",
          "name": "",
          "type": "string"
        }
      ],
      "stateMutability": "view",
      "type": "function"
    },
    {
      "inputs": [
        {
          "internalType": "uint256",
          "name": "index",
          "type": "uint256"
        }
      ],
      "name": "tokenByIndex",
      "outputs": [
        {
          "internalType": "uint256",
          "name": "",
          "type": "uint256"
        }
      ],
      "stateMutability": "view",
      "type": "function"
    },
    {
      "inputs": [
        {
          "internalType": "address",
          "name": "owner",
          "type": "address"
        },
        {
          "internalType": "uint256",
          "name": "index",
          "type": "uint256"
        }
      ],
      "name": "tokenOfOwnerByIndex",
      "outputs": [
        {
          "internalType": "uint256",
          "name": "",
          "type": "uint256"
        }
      ],
      "stateMutability": "view",
      "type": "function"
    },
    {
      "inputs": [
        {
          "internalType": "uint256",
          "name": "tokenId",
          "type": "uint256"
        }
      ],
      "name": "tokenURI",
      "outputs": [
        {
          "internalType": "string",
          "name": "",
          "type": "string"
        }
      ],
      "stateMutability": "view",
      "type": "function"
    },
    {
      "inputs": [],
      "name": "totalSupply",
      "outputs": [
        {
          "internalType": "uint256",
          "name": "",
          "type": "uint256"
        }
      ],
      "stateMutability": "view",
      "type": "function"
    },
    {
      "inputs": [
        {
          "internalType": "address",
          "name": "from",
          "type": "address"
        },
        {
          "internalType": "address",
          "name": "to",
          "type": "address"
        },
        {
          "internalType": "uint256",
          "name": "tokenId",
          "type": "uint256"
        }
      ],
      "name": "transferFrom",
      "outputs": [],
      "stateMutability": "nonpayable",
      "type": "function"
    },
    {
      "inputs": [
        {
          "internalType": "address",
          "name": "newOwner",
          "type": "address"
        }
      ],
      "name": "transferOwnership",
      "outputs": [],
      "stateMutability": "nonpayable",
      "type": "function"
    },
    {
      "inputs": [],
      "name": "unpause",
      "outputs": [],
      "stateMutability": "nonpayable",
      "type": "function"
    }
  ],
  "bytecode": "0x60086103e08181526734b698973539b7b760c11b6104005260809081526104208281526734b699173539b7b760c11b6104405260a0526104608281526734b699973539b7b760c11b6104805260c0526104a08281526734b69a173539b7b760c11b6104c05260e0526104e09182526734b69a973539b7b760c11b610500526101009190915260096105208181526831b0b818973539b7b760b91b61054052610120526105608181526831b0b819173539b7b760b91b61058052610140526105a08181526831b0b819973539b7b760b91b6105c052610160526105e08181526831b0b81a173539b7b760b91b61060052610180526106208181526831b0b81a973539b7b760b91b610640526101a052600a610660818152693a3437b918973539b7b760b11b610680526101c0526106a0818152693a3437b919173539b7b760b11b6106c0526101e0526106e0818152693a3437b919973539b7b760b11b6107005261020052610720908152693a3437b91a173539b7b760b11b6107405261022052610760818152683237b198973539b7b760b91b61078052610240526107a0818152683237b199173539b7b760b91b6107c052610260526107e0818152683237b199973539b7b760b91b6108005261028052610820908152683237b19a173539b7b760b91b610840526102a052600c6108608181526b39b834b232b918973539b7b760a11b610880526102c0526108a08181526b39b834b232b919173539b7b760a11b6108c0526102e0526108e09081526b39b834b232b919973539b7b760a11b6109005261030052600b6109208181526a3bb4b237bb98973539b7b760a91b61094052610320526109608181526a3bb4b237bb99173539b7b760a91b61098052610340526109a09081526a3bb4b237bb99973539b7b760a91b6109c05261036052600d6109e08181526c3830b73a3432b918973539b7b760991b610a005261038052610a208181526c3830b73a3432b919173539b7b760991b610a40526103a052610aa0604052610a608181526c3830b73a3432b919973539b7b760991b610a80526103c0526200031291601b620003fd565b503480156200032057600080fd5b50604080518082018252600b81526a105d995b99d95c9cd3919560aa1b60208083019182528351808501909452600384526241564760e81b9084015281519192916200036f9160009162000461565b5080516200038590600190602084019062000461565b5050600b805460ff19169055506200039d33620003a3565b620005a3565b600b80546001600160a01b03838116610100818102610100600160a81b031985161790945560405193909204169182907f8be0079c531659141344cd1fd0a4f28419497f9722a3daafe3b4186f6b6457e090600090a35050565b8280548282559060005260206000209081019282156200044f579160200282015b828111156200044f57825180516200043e91849160209091019062000461565b50916020019190600101906200041e565b506200045d929150620004ec565b5090565b8280546200046f9062000566565b90600052602060002090601f016020900481019282620004935760008555620004de565b82601f10620004ae57805160ff1916838001178555620004de565b82800160010185558215620004de579182015b82811115620004de578251825591602001919060010190620004c1565b506200045d9291506200050d565b808211156200045d57600062000503828262000524565b50600101620004ec565b5b808211156200045d57600081556001016200050e565b508054620005329062000566565b6000825580601f1062000543575050565b601f0160209004906000526020600020908101906200056391906200050d565b50565b600181811c908216806200057b57607f821691505b602082108114156200059d57634e487b7160e01b600052602260045260246000fd5b50919050565b611dde80620005b36000396000f3fe608060405234801561001057600080fd5b506004361061014d5760003560e01c80635c975abb116100c357806395d89b411161007c57806395d89b411461029f578063a22cb465146102a7578063b88d4fde146102ba578063c87b56dd146102cd578063e985e9c5146102e0578063f2fde38b1461031c57600080fd5b80635c975abb146102485780636352211e1461025357806370a0823114610266578063715018a6146102795780638456cb59146102815780638da5cb5b1461028957600080fd5b806323b872dd1161011557806323b872dd146101e15780632f745c59146101f457806331c864e8146102075780633f4ba83a1461021a57806342842e0e146102225780634f6ccce71461023557600080fd5b806301ffc9a71461015257806306fdde031461017a578063081812fc1461018f578063095ea7b3146101ba57806318160ddd146101cf575b600080fd5b61016561016036600461188a565b61032f565b60405190151581526020015b60405180910390f35b610182610340565b60405161017191906118ff565b6101a261019d366004611912565b6103d2565b6040516001600160a01b039091168152602001610171565b6101cd6101c8366004611947565b6103f9565b005b6008545b604051908152602001610171565b6101cd6101ef366004611971565b610514565b6101d3610202366004611947565b610545565b6101cd610215366004611912565b6105db565b6101cd6106e8565b6101cd610230366004611971565b6106fa565b6101d3610243366004611912565b610715565b600b5460ff16610165565b6101a2610261366004611912565b6107a8565b6101d36102743660046119ad565b610808565b6101cd61088e565b6101cd6108a0565b600b5461010090046001600160a01b03166101a2565b6101826108b0565b6101cd6102b53660046119c8565b6108bf565b6101cd6102c8366004611a1a565b6108ce565b6101826102db366004611912565b610906565b6101656102ee366004611af6565b6001600160a01b03918216600090815260056020908152604080832093909416825291909152205460ff1690565b6101cd61032a3660046119ad565b610911565b600061033a8261098a565b92915050565b60606000805461034f90611b29565b80601f016020809104026020016040519081016040528092919081815260200182805461037b90611b29565b80156103c85780601f1061039d576101008083540402835291602001916103c8565b820191906000526020600020905b8154815290600101906020018083116103ab57829003601f168201915b5050505050905090565b60006103dd826109af565b506000908152600460205260409020546001600160a01b031690565b6000610404826107a8565b9050806001600160a01b0316836001600160a01b031614156104775760405162461bcd60e51b815260206004820152602160248201527f4552433732313a20617070726f76616c20746f2063757272656e74206f776e656044820152603960f91b60648201526084015b60405180910390fd5b336001600160a01b0382161480610493575061049381336102ee565b6105055760405162461bcd60e51b815260206004820152603e60248201527f4552433732313a20617070726f76652063616c6c6572206973206e6f7420746f60448201527f6b656e206f776e6572206e6f7220617070726f76656420666f7220616c6c0000606482015260840161046e565b61050f8383610a0e565b505050565b61051e3382610a7c565b61053a5760405162461bcd60e51b815260040161046e90611b64565b61050f838383610afb565b600061055083610808565b82106105b25760405162461bcd60e51b815260206004820152602b60248201527f455243373231456e756d657261626c653a206f776e657220696e646578206f7560448201526a74206f6620626f756e647360a81b606482015260840161046e565b506001600160a01b03919091166000908152600660209081526040808320938352929052205490565b60006105e6600c5490565b90506105f6600c80546001019055565b6106003382610ca2565b6106af81600d848154811061061757610617611bb2565b90600052602060002001805461062c90611b29565b80601f016020809104026020016040519081016040528092919081815260200182805461065890611b29565b80156106a55780601f1061067a576101008083540402835291602001916106a5565b820191906000526020600020905b81548152906001019060200180831161068857829003601f168201915b5050505050610cbc565b60405181815233907f43d7cce69c69649bc274200f01b316a826553d0d6f218095e81c8d3fad8c73e79060200160405180910390a25050565b6106f0610d56565b6106f8610db6565b565b61050f838383604051806020016040528060008152506108ce565b600061072060085490565b82106107835760405162461bcd60e51b815260206004820152602c60248201527f455243373231456e756d657261626c653a20676c6f62616c20696e646578206f60448201526b7574206f6620626f756e647360a01b606482015260840161046e565b6008828154811061079657610796611bb2565b90600052602060002001549050919050565b6000818152600260205260408120546001600160a01b03168061033a5760405162461bcd60e51b8152602060048201526018602482015277115490cdcc8c4e881a5b9d985b1a59081d1bdad95b88125160421b604482015260640161046e565b60006001600160a01b0382166108725760405162461bcd60e51b815260206004820152602960248201527f4552433732313a2061646472657373207a65726f206973206e6f7420612076616044820152683634b21037bbb732b960b91b606482015260840161046e565b506001600160a01b031660009081526003602052604090205490565b610896610d56565b6106f86000610e08565b6108a8610d56565b6106f8610e62565b60606001805461034f90611b29565b6108ca338383610e9f565b5050565b6108d83383610a7c565b6108f45760405162461bcd60e51b815260040161046e90611b64565b61090084848484610f6e565b50505050565b606061033a82610fa1565b610919610d56565b6001600160a01b03811661097e5760405162461bcd60e51b815260206004820152602660248201527f4f776e61626c653a206e6577206f776e657220697320746865207a65726f206160448201526564647265737360d01b606482015260840161046e565b61098781610e08565b50565b60006001600160e01b0319821663780e9d6360e01b148061033a575061033a8261109d565b6000818152600260205260409020546001600160a01b03166109875760405162461bcd60e51b8152602060048201526018602482015277115490cdcc8c4e881a5b9d985b1a59081d1bdad95b88125160421b604482015260640161046e565b600081815260046020526040902080546001600160a01b0319166001600160a01b0384169081179091558190610a43826107a8565b6001600160a01b03167f8c5be1e5ebec7d5bd14f71427d1e84f3dd0314c0f7b2291e5b200ac8c7c3b92560405160405180910390a45050565b600080610a88836107a8565b9050806001600160a01b0316846001600160a01b03161480610acf57506001600160a01b0380821660009081526005602090815260408083209388168352929052205460ff165b80610af35750836001600160a01b0316610ae8846103d2565b6001600160a01b0316145b949350505050565b826001600160a01b0316610b0e826107a8565b6001600160a01b031614610b725760405162461bcd60e51b815260206004820152602560248201527f4552433732313a207472616e736665722066726f6d20696e636f72726563742060448201526437bbb732b960d91b606482015260840161046e565b6001600160a01b038216610bd45760405162461bcd60e51b8152602060048201526024808201527f4552433732313a207472616e7366657220746f20746865207a65726f206164646044820152637265737360e01b606482015260840161046e565b610bdf8383836110ed565b610bea600082610a0e565b6001600160a01b0383166000908152600360205260408120805460019290610c13908490611bde565b90915550506001600160a01b0382166000908152600360205260408120805460019290610c41908490611bf5565b909155505060008181526002602052604080822080546001600160a01b0319166001600160a01b0386811691821790925591518493918716917fddf252ad1be2c89b69c2b068fc378daa952ba7f163c4a11628f55a4df523b3ef91a4505050565b6108ca828260405180602001604052806000815250611100565b6000828152600260205260409020546001600160a01b0316610d375760405162461bcd60e51b815260206004820152602e60248201527f45524337323155524953746f726167653a2055524920736574206f66206e6f6e60448201526d32bc34b9ba32b73a103a37b5b2b760911b606482015260840161046e565b6000828152600a60209081526040909120825161050f928401906117db565b600b546001600160a01b036101009091041633146106f85760405162461bcd60e51b815260206004820181905260248201527f4f776e61626c653a2063616c6c6572206973206e6f7420746865206f776e6572604482015260640161046e565b610dbe611133565b600b805460ff191690557f5db9ee0a495bf2e6ff9c91a7834c1ba4fdd244a5e8aa4e537bd38aeae4b073aa335b6040516001600160a01b03909116815260200160405180910390a1565b600b80546001600160a01b03838116610100818102610100600160a81b031985161790945560405193909204169182907f8be0079c531659141344cd1fd0a4f28419497f9722a3daafe3b4186f6b6457e090600090a35050565b610e6a61117c565b600b805460ff191660011790557f62e78cea01bee320cd4e420270b5ea74000d11b0c9f74754ebdbfc544b05a258610deb3390565b816001600160a01b0316836001600160a01b03161415610f015760405162461bcd60e51b815260206004820152601960248201527f4552433732313a20617070726f766520746f2063616c6c657200000000000000604482015260640161046e565b6001600160a01b03838116600081815260056020908152604080832094871680845294825291829020805460ff191686151590811790915591519182527f17307eab39ab6107e8899845ad3d59bd9653f200f220920489ca2b5937696c31910160405180910390a3505050565b610f79848484610afb565b610f85848484846111c2565b6109005760405162461bcd60e51b815260040161046e90611c0d565b6060610fac826109af565b6000828152600a602052604081208054610fc590611b29565b80601f0160208091040260200160405190810160405280929190818152602001828054610ff190611b29565b801561103e5780601f106110135761010080835404028352916020019161103e565b820191906000526020600020905b81548152906001019060200180831161102157829003601f168201915b50505050509050600061104f6112c0565b9050805160001415611062575092915050565b81511561109457808260405160200161107c929190611c5f565b60405160208183030381529060405292505050919050565b610af3846112e0565b60006001600160e01b031982166380ac58cd60e01b14806110ce57506001600160e01b03198216635b5e139f60e01b145b8061033a57506301ffc9a760e01b6001600160e01b031983161461033a565b6110f561117c565b61050f838383611347565b61110a83836113ff565b61111760008484846111c2565b61050f5760405162461bcd60e51b815260040161046e90611c0d565b600b5460ff166106f85760405162461bcd60e51b815260206004820152601460248201527314185d5cd8589b194e881b9bdd081c185d5cd95960621b604482015260640161046e565b600b5460ff16156106f85760405162461bcd60e51b815260206004820152601060248201526f14185d5cd8589b194e881c185d5cd95960821b604482015260640161046e565b60006001600160a01b0384163b156112b557604051630a85bd0160e11b81526001600160a01b0385169063150b7a0290611206903390899088908890600401611c8e565b6020604051808303816000875af1925050508015611241575060408051601f3d908101601f1916820190925261123e91810190611ccb565b60015b61129b573d80801561126f576040519150601f19603f3d011682016040523d82523d6000602084013e611274565b606091505b5080516112935760405162461bcd60e51b815260040161046e90611c0d565b805181602001fd5b6001600160e01b031916630a85bd0160e11b149050610af3565b506001949350505050565b6060604051806080016040528060518152602001611d5860519139905090565b60606112eb826109af565b60006112f56112c0565b905060008151116113155760405180602001604052806000815250611340565b8061131f8461154d565b604051602001611330929190611c5f565b6040516020818303038152906040525b9392505050565b6001600160a01b0383166113a25761139d81600880546000838152600960205260408120829055600182018355919091527ff3f7a9fe364faab93b216da50a3214154f22a0a2b415b23a84c8169e8b636ee30155565b6113c5565b816001600160a01b0316836001600160a01b0316146113c5576113c5838261164b565b6001600160a01b0382166113dc5761050f816116e8565b826001600160a01b0316826001600160a01b03161461050f5761050f8282611797565b6001600160a01b0382166114555760405162461bcd60e51b815260206004820181905260248201527f4552433732313a206d696e7420746f20746865207a65726f2061646472657373604482015260640161046e565b6000818152600260205260409020546001600160a01b0316156114ba5760405162461bcd60e51b815260206004820152601c60248201527f4552433732313a20746f6b656e20616c7265616479206d696e74656400000000604482015260640161046e565b6114c6600083836110ed565b6001600160a01b03821660009081526003602052604081208054600192906114ef908490611bf5565b909155505060008181526002602052604080822080546001600160a01b0319166001600160a01b03861690811790915590518392907fddf252ad1be2c89b69c2b068fc378daa952ba7f163c4a11628f55a4df523b3ef908290a45050565b6060816115715750506040805180820190915260018152600360fc1b602082015290565b8160005b811561159b578061158581611ce8565b91506115949050600a83611d19565b9150611575565b60008167ffffffffffffffff8111156115b6576115b6611a04565b6040519080825280601f01601f1916602001820160405280156115e0576020820181803683370190505b5090505b8415610af3576115f5600183611bde565b9150611602600a86611d2d565b61160d906030611bf5565b60f81b81838151811061162257611622611bb2565b60200101906001600160f81b031916908160001a905350611644600a86611d19565b94506115e4565b6000600161165884610808565b6116629190611bde565b6000838152600760205260409020549091508082146116b5576001600160a01b03841660009081526006602090815260408083208584528252808320548484528184208190558352600790915290208190555b5060009182526007602090815260408084208490556001600160a01b039094168352600681528383209183525290812055565b6008546000906116fa90600190611bde565b6000838152600960205260408120546008805493945090928490811061172257611722611bb2565b90600052602060002001549050806008838154811061174357611743611bb2565b600091825260208083209091019290925582815260099091526040808220849055858252812055600880548061177b5761177b611d41565b6001900381819060005260206000200160009055905550505050565b60006117a283610808565b6001600160a01b039093166000908152600660209081526040808320868452825280832085905593825260079052919091209190915550565b8280546117e790611b29565b90600052602060002090601f016020900481019282611809576000855561184f565b82601f1061182257805160ff191683800117855561184f565b8280016001018555821561184f579182015b8281111561184f578251825591602001919060010190611834565b5061185b92915061185f565b5090565b5b8082111561185b5760008155600101611860565b6001600160e01b03198116811461098757600080fd5b60006020828403121561189c57600080fd5b813561134081611874565b60005b838110156118c25781810151838201526020016118aa565b838111156109005750506000910152565b600081518084526118eb8160208601602086016118a7565b601f01601f19169290920160200192915050565b60208152600061134060208301846118d3565b60006020828403121561192457600080fd5b5035919050565b80356001600160a01b038116811461194257600080fd5b919050565b6000806040838503121561195a57600080fd5b6119638361192b565b946020939093013593505050565b60008060006060848603121561198657600080fd5b61198f8461192b565b925061199d6020850161192b565b9150604084013590509250925092565b6000602082840312156119bf57600080fd5b6113408261192b565b600080604083850312156119db57600080fd5b6119e48361192b565b9150602083013580151581146119f957600080fd5b809150509250929050565b634e487b7160e01b600052604160045260246000fd5b60008060008060808587031215611a3057600080fd5b611a398561192b565b9350611a476020860161192b565b925060408501359150606085013567ffffffffffffffff80821115611a6b57600080fd5b818701915087601f830112611a7f57600080fd5b813581811115611a9157611a91611a04565b604051601f8201601f19908116603f01168101908382118183101715611ab957611ab9611a04565b816040528281528a6020848701011115611ad257600080fd5b82602086016020830137600060208483010152809550505050505092959194509250565b60008060408385031215611b0957600080fd5b611b128361192b565b9150611b206020840161192b565b90509250929050565b600181811c90821680611b3d57607f821691505b60208210811415611b5e57634e487b7160e01b600052602260045260246000fd5b50919050565b6020808252602e908201527f4552433732313a2063616c6c6572206973206e6f7420746f6b656e206f776e6560408201526d1c881b9bdc88185c1c1c9bdd995960921b606082015260800190565b634e487b7160e01b600052603260045260246000fd5b634e487b7160e01b600052601160045260246000fd5b600082821015611bf057611bf0611bc8565b500390565b60008219821115611c0857611c08611bc8565b500190565b60208082526032908201527f4552433732313a207472616e7366657220746f206e6f6e20455243373231526560408201527131b2b4bb32b91034b6b83632b6b2b73a32b960711b606082015260800190565b60008351611c718184602088016118a7565b835190830190611c858183602088016118a7565b01949350505050565b6001600160a01b0385811682528416602082015260408101839052608060608201819052600090611cc1908301846118d3565b9695505050505050565b600060208284031215611cdd57600080fd5b815161134081611874565b6000600019821415611cfc57611cfc611bc8565b5060010190565b634e487b7160e01b600052601260045260246000fd5b600082611d2857611d28611d03565b500490565b600082611d3c57611d3c611d03565b500690565b634e487b7160e01b600052603160045260246000fdfe68747470733a2f2f697066732e696f2f697066732f62616679626569643469376963683568743732677a62733235376b763277766475787a7a3432776f657a66627277377472636e6e627634377661652fa2646970667358221220b1c40946876a51ea49298854ea03f24a7a220788421358fc51ec0f8d711a9b3a64736f6c634300080c0033",
  "linkReferences": {},
  "deployedLinkReferences": {}
}